{
    "_format": "hh-sol-artifact-1",
    "contractName": "FunctionsConsumer",
    "sourceName": "contracts/FunctionsConsumer.sol",
    "abi": [
        {
            "inputs": [
                {
                    "internalType": "address",
                    "name": "oracle",
                    "type": "address"
                }
            ],
            "stateMutability": "nonpayable",
            "type": "constructor"
        },
        {
            "inputs": [],
            "name": "EmptyArgs",
            "type": "error"
        },
        {
            "inputs": [],
            "name": "EmptySecrets",
            "type": "error"
        },
        {
            "inputs": [],
            "name": "EmptySource",
            "type": "error"
        },
        {
            "inputs": [],
            "name": "NoInlineSecrets",
            "type": "error"
        },
        {
            "inputs": [],
            "name": "RequestIsAlreadyPending",
            "type": "error"
        },
        {
            "inputs": [],
            "name": "RequestIsNotPending",
            "type": "error"
        },
        {
            "inputs": [],
            "name": "SenderIsNotRegistry",
            "type": "error"
        },
        {
            "anonymous": false,
            "inputs": [
                {
                    "indexed": true,
                    "internalType": "bytes32",
                    "name": "requestId",
                    "type": "bytes32"
                },
                {
                    "indexed": false,
                    "internalType": "bytes",
                    "name": "result",
                    "type": "bytes"
                },
                {
                    "indexed": false,
                    "internalType": "bytes",
                    "name": "err",
                    "type": "bytes"
                }
            ],
            "name": "OCRResponse",
            "type": "event"
        },
        {
            "anonymous": false,
            "inputs": [
                {
                    "indexed": true,
                    "internalType": "address",
                    "name": "from",
                    "type": "address"
                },
                {
                    "indexed": true,
                    "internalType": "address",
                    "name": "to",
                    "type": "address"
                }
            ],
            "name": "OwnershipTransferRequested",
            "type": "event"
        },
        {
            "anonymous": false,
            "inputs": [
                {
                    "indexed": true,
                    "internalType": "address",
                    "name": "from",
                    "type": "address"
                },
                {
                    "indexed": true,
                    "internalType": "address",
                    "name": "to",
                    "type": "address"
                }
            ],
            "name": "OwnershipTransferred",
            "type": "event"
        },
        {
            "anonymous": false,
            "inputs": [
                {
                    "indexed": true,
                    "internalType": "bytes32",
                    "name": "id",
                    "type": "bytes32"
                }
            ],
            "name": "RequestFulfilled",
            "type": "event"
        },
        {
            "anonymous": false,
            "inputs": [
                {
                    "indexed": true,
                    "internalType": "bytes32",
                    "name": "id",
                    "type": "bytes32"
                }
            ],
            "name": "RequestSent",
            "type": "event"
        },
        {
            "inputs": [],
            "name": "acceptOwnership",
            "outputs": [],
            "stateMutability": "nonpayable",
            "type": "function"
        },
        {
            "inputs": [
                {
                    "internalType": "address",
                    "name": "oracleAddress",
                    "type": "address"
                },
                {
                    "internalType": "bytes32",
                    "name": "requestId",
                    "type": "bytes32"
                }
            ],
            "name": "addSimulatedRequestId",
            "outputs": [],
            "stateMutability": "nonpayable",
            "type": "function"
        },
        {
            "inputs": [
                {
                    "internalType": "bytes32",
                    "name": "",
                    "type": "bytes32"
                }
            ],
            "name": "dealIds",
            "outputs": [
                {
                    "internalType": "uint256",
                    "name": "",
                    "type": "uint256"
                }
            ],
            "stateMutability": "view",
            "type": "function"
        },
        {
            "inputs": [
                {
                    "components": [
                        {
                            "internalType": "enum Functions.Location",
                            "name": "codeLocation",
                            "type": "uint8"
                        },
                        {
                            "internalType": "enum Functions.Location",
                            "name": "secretsLocation",
                            "type": "uint8"
                        },
                        {
                            "internalType": "enum Functions.CodeLanguage",
                            "name": "language",
                            "type": "uint8"
                        },
                        {
                            "internalType": "string",
                            "name": "source",
                            "type": "string"
                        },
                        {
                            "internalType": "bytes",
                            "name": "secrets",
                            "type": "bytes"
                        },
                        {
                            "internalType": "string[]",
                            "name": "args",
                            "type": "string[]"
                        }
                    ],
                    "internalType": "struct Functions.Request",
                    "name": "req",
                    "type": "tuple"
                },
                {
                    "internalType": "uint64",
                    "name": "subscriptionId",
                    "type": "uint64"
                },
                {
                    "internalType": "uint32",
                    "name": "gasLimit",
                    "type": "uint32"
                },
                {
                    "internalType": "uint256",
                    "name": "gasPrice",
                    "type": "uint256"
                }
            ],
            "name": "estimateCost",
            "outputs": [
                {
                    "internalType": "uint96",
                    "name": "",
                    "type": "uint96"
                }
            ],
            "stateMutability": "view",
            "type": "function"
        },
        {
            "inputs": [],
            "name": "ethWaldo",
            "outputs": [
                {
                    "internalType": "contract IETHWaldo",
                    "name": "",
                    "type": "address"
                }
            ],
            "stateMutability": "view",
            "type": "function"
        },
        {
            "inputs": [
                {
                    "internalType": "string",
                    "name": "source",
                    "type": "string"
                },
                {
                    "internalType": "bytes",
                    "name": "secrets",
                    "type": "bytes"
                },
                {
                    "internalType": "string[]",
                    "name": "args",
                    "type": "string[]"
                },
                {
                    "internalType": "uint64",
                    "name": "subscriptionId",
                    "type": "uint64"
                },
                {
                    "internalType": "uint32",
                    "name": "gasLimit",
                    "type": "uint32"
                },
                {
                    "internalType": "uint256",
                    "name": "dealId",
                    "type": "uint256"
                }
            ],
            "name": "executeRequest",
            "outputs": [
                {
                    "internalType": "bytes32",
                    "name": "",
                    "type": "bytes32"
                }
            ],
            "stateMutability": "nonpayable",
            "type": "function"
        },
        {
            "inputs": [],
            "name": "getDONPublicKey",
            "outputs": [
                {
                    "internalType": "bytes",
                    "name": "",
                    "type": "bytes"
                }
            ],
            "stateMutability": "view",
            "type": "function"
        },
        {
            "inputs": [
                {
                    "internalType": "bytes32",
                    "name": "requestId",
                    "type": "bytes32"
                },
                {
                    "internalType": "bytes",
                    "name": "response",
                    "type": "bytes"
                },
                {
                    "internalType": "bytes",
                    "name": "err",
                    "type": "bytes"
                }
            ],
            "name": "handleOracleFulfillment",
            "outputs": [],
            "stateMutability": "nonpayable",
            "type": "function"
        },
        {
            "inputs": [],
            "name": "latestError",
            "outputs": [
                {
                    "internalType": "bytes",
                    "name": "",
                    "type": "bytes"
                }
            ],
            "stateMutability": "view",
            "type": "function"
        },
        {
            "inputs": [],
            "name": "latestRequestId",
            "outputs": [
                {
                    "internalType": "bytes32",
                    "name": "",
                    "type": "bytes32"
                }
            ],
            "stateMutability": "view",
            "type": "function"
        },
        {
            "inputs": [],
            "name": "latestResponse",
            "outputs": [
                {
                    "internalType": "bytes",
                    "name": "",
                    "type": "bytes"
                }
            ],
            "stateMutability": "view",
            "type": "function"
        },
        {
            "inputs": [],
            "name": "owner",
            "outputs": [
                {
                    "internalType": "address",
                    "name": "",
                    "type": "address"
                }
            ],
            "stateMutability": "view",
            "type": "function"
        },
        {
            "inputs": [
                {
                    "internalType": "address",
                    "name": "_ethWaldo",
                    "type": "address"
                }
            ],
            "name": "setETHWaldo",
            "outputs": [],
            "stateMutability": "nonpayable",
            "type": "function"
        },
        {
            "inputs": [
                {
                    "internalType": "address",
                    "name": "to",
                    "type": "address"
                }
            ],
            "name": "transferOwnership",
            "outputs": [],
            "stateMutability": "nonpayable",
            "type": "function"
        },
        {
            "inputs": [
                {
                    "internalType": "address",
                    "name": "oracle",
                    "type": "address"
                }
            ],
            "name": "updateOracleAddress",
            "outputs": [],
            "stateMutability": "nonpayable",
            "type": "function"
        }
    ],
    "bytecode": "0x60806040523480156200001157600080fd5b5060405162001f3938038062001f39833981016040819052620000349162000199565b600080546001600160a01b0319166001600160a01b038316178155339081906001600160a01b038216620000af5760405162461bcd60e51b815260206004820152601860248201527f43616e6e6f7420736574206f776e657220746f207a65726f000000000000000060448201526064015b60405180910390fd5b600280546001600160a01b0319166001600160a01b0384811691909117909155811615620000e257620000e281620000ec565b50505050620001cb565b6001600160a01b038116331415620001475760405162461bcd60e51b815260206004820152601760248201527f43616e6e6f74207472616e7366657220746f2073656c660000000000000000006044820152606401620000a6565b600380546001600160a01b0319166001600160a01b03838116918217909255600254604051919216907fed8889f560326eb138920d842192f0eb3dd22b4f139c87a2c57538e05bae127890600090a350565b600060208284031215620001ac57600080fd5b81516001600160a01b0381168114620001c457600080fd5b9392505050565b611d5e80620001db6000396000f3fe608060405234801561001057600080fd5b50600436106100f55760003560e01c8063c577f1a011610097578063e1a69c1611610066578063e1a69c16146101fe578063f2fde38b14610211578063f7023bb614610224578063fffeb84e1461023757600080fd5b8063c577f1a0146101a0578063ca6a3c84146101b3578063d328a91e146101c6578063d4b39175146101ce57600080fd5b806379ba5097116100d357806379ba50971461013e57806386b250f4146101465780638da5cb5b14610166578063bef3a2f01461018b57600080fd5b80630ca76175146100fa5780631aa46f591461010f57806330bda99d1461012b575b600080fd5b61010d610108366004611667565b61023f565b005b61011860045481565b6040519081526020015b60405180910390f35b61010d610139366004611609565b6102e5565b61010d6102fb565b610118610154366004611635565b60086020526000908152604090205481565b6002546001600160a01b03165b6040516001600160a01b039091168152602001610122565b6101936103b5565b60405161012291906119a2565b600754610173906001600160a01b031681565b6101186101c1366004611742565b610443565b610193610564565b6101e16101dc366004611836565b610602565b6040516bffffffffffffffffffffffff9091168152602001610122565b61010d61020c3660046115cf565b610698565b61010d61021f3660046115cf565b6106c2565b61010d6102323660046115cf565b6106d6565b6101936106fc565b60008381526001602052604090205483906001600160a01b03163314610291576040517fa0c5ec6300000000000000000000000000000000000000000000000000000000815260040160405180910390fd5b60008181526001602052604080822080546001600160a01b03191690555182917f85e1543bf2f84fe80c6badbce3648c8539ad1df4d2b3d822938ca0538be727e691a26102df848484610709565b50505050565b6102ed610835565b6102f78282610891565b5050565b6003546001600160a01b0316331461035a5760405162461bcd60e51b815260206004820152601660248201527f4d7573742062652070726f706f736564206f776e65720000000000000000000060448201526064015b60405180910390fd5b600280546001600160a01b0319808216339081179093556003805490911690556040516001600160a01b03909116919082907f8be0079c531659141344cd1fd0a4f28419497f9722a3daafe3b4186f6b6457e090600090a350565b600580546103c290611c43565b80601f01602080910402602001604051908101604052809291908181526020018280546103ee90611c43565b801561043b5780601f106104105761010080835404028352916020019161043b565b820191906000526020600020905b81548152906001019060200180831161041e57829003601f168201915b505050505081565b600061044d610835565b6104876040805160c08101909152806000815260200160008152602001600081526020016060815260200160608152602001606081525090565b6104ce6000808d8d8080601f016020809104026020016040519081016040528093929190818152602001838380828437600092019190915250879594939250506109119050565b87156105165761051689898080601f01602080910402602001604051908101604052809392919081815260200183838082843760009201919091525085939250506109a59050565b8515610530576105306105298789611c0a565b82906109ec565b600061053d828787610a2c565b60048190556000818152600860205260409020859055925050509998505050505050505050565b60008054604080517fd328a91e00000000000000000000000000000000000000000000000000000000815290516060936001600160a01b039093169263d328a91e9260048082019391829003018186803b1580156105c157600080fd5b505afa1580156105d5573d6000803e3d6000fd5b505050506040513d6000823e601f3d908101601f191682016040526105fd91908101906116d4565b905090565b600080546001600160a01b031663d227d2458561061e88610b9e565b86866040518563ffffffff1660e01b815260040161063f9493929190611a13565b60206040518083038186803b15801561065757600080fd5b505afa15801561066b573d6000803e3d6000fd5b505050506040513d601f19601f8201168201806040525081019061068f9190611948565b95945050505050565b6106a0610835565b600780546001600160a01b0319166001600160a01b0392909216919091179055565b6106ca610835565b6106d381610e6a565b50565b6106de610835565b600080546001600160a01b0319166001600160a01b03831617905550565b600680546103c290611c43565b805115610729578051610723906006906020840190611367565b506107e8565b815161073c906005906020850190611367565b50600082806020019051810190610753919061164e565b600085815260086020526040908190205460075491517ff24cbe840000000000000000000000000000000000000000000000000000000081526004810182905260248101849052929350916001600160a01b039091169063f24cbe8490604401600060405180830381600087803b1580156107cd57600080fd5b505af11580156107e1573d6000803e3d6000fd5b5050505050505b827f7bab0ec163b5c132c72b8146ac4d6e067e82ed58f8b131150aa71c9258911562838360405161081a9291906119b5565b60405180910390a25050600090815260086020526040812055565b6002546001600160a01b0316331461088f5760405162461bcd60e51b815260206004820152601660248201527f4f6e6c792063616c6c61626c65206279206f776e6572000000000000000000006044820152606401610351565b565b60008181526001602052604090205481906001600160a01b0316156108e2576040517f8b457ad200000000000000000000000000000000000000000000000000000000815260040160405180910390fd5b50600090815260016020526040902080546001600160a01b0319166001600160a01b0392909216919091179055565b8051610949576040517f22ce3edd00000000000000000000000000000000000000000000000000000000815260040160405180910390fd5b8383600181111561095c5761095c611cd1565b9081600181111561096f5761096f611cd1565b9052506040840182801561098557610985611cd1565b9081801561099557610995611cd1565b9052506060909301929092525050565b80516109dd576040517fe889636f00000000000000000000000000000000000000000000000000000000815260040160405180910390fd5b60016020830152608090910152565b8051610a24576040517ffe936cb700000000000000000000000000000000000000000000000000000000815260040160405180910390fd5b60a090910152565b6000805481906001600160a01b03166328242b0485610a4a88610b9e565b866040518463ffffffff1660e01b8152600401610a69939291906119da565b602060405180830381600087803b158015610a8357600080fd5b505af1158015610a97573d6000803e3d6000fd5b505050506040513d601f19601f82011682018060405250810190610abb919061164e565b905060008054906101000a90046001600160a01b03166001600160a01b0316635ab1bd536040518163ffffffff1660e01b815260040160206040518083038186803b158015610b0957600080fd5b505afa158015610b1d573d6000803e3d6000fd5b505050506040513d601f19601f82011682018060405250810190610b4191906115ec565b60008281526001602052604080822080546001600160a01b0319166001600160a01b039490941693909317909255905182917f1131472297a800fee664d1d89cfa8f7676ff07189ecc53f80bbb5f4969099db891a2949350505050565b6060610ba86113eb565b8051610bb690610100610f15565b50610bf6816040518060400160405280600c81526020017f636f64654c6f636174696f6e0000000000000000000000000000000000000000815250610f8f565b610c158184600001516001811115610c1057610c10611cd1565b610fad565b610c54816040518060400160405280600881526020017f6c616e6775616765000000000000000000000000000000000000000000000000815250610f8f565b610c6e8184604001516000811115610c1057610c10611cd1565b610cad816040518060400160405280600681526020017f736f757263650000000000000000000000000000000000000000000000000000815250610f8f565b610cbb818460600151610f8f565b60a08301515115610d6157610d05816040518060400160405280600481526020017f6172677300000000000000000000000000000000000000000000000000000000815250610f8f565b610d0e81610fe6565b60005b8360a0015151811015610d5757610d45828560a001518381518110610d3857610d38611ce7565b6020026020010151610f8f565b80610d4f81611c7e565b915050610d11565b50610d618161100a565b60808301515115610e6257600083602001516001811115610d8457610d84611cd1565b1415610dbc576040517fa80d31f700000000000000000000000000000000000000000000000000000000815260040160405180910390fd5b610dfb816040518060400160405280600f81526020017f736563726574734c6f636174696f6e0000000000000000000000000000000000815250610f8f565b610e158184602001516001811115610c1057610c10611cd1565b610e54816040518060400160405280600781526020017f7365637265747300000000000000000000000000000000000000000000000000815250610f8f565b610e62818460800151611028565b515192915050565b6001600160a01b038116331415610ec35760405162461bcd60e51b815260206004820152601760248201527f43616e6e6f74207472616e7366657220746f2073656c660000000000000000006044820152606401610351565b600380546001600160a01b0319166001600160a01b03838116918217909255600254604051919216907fed8889f560326eb138920d842192f0eb3dd22b4f139c87a2c57538e05bae127890600090a350565b604080518082019091526060815260006020820152610f35602083611c99565b15610f5d57610f45602083611c99565b610f50906020611bf3565b610f5a9083611ad1565b91505b602080840183905260405180855260008152908184010181811015610f8157600080fd5b604052508290505b92915050565b610f9c8260038351611031565b8151610fa89082611152565b505050565b8151610fba9060c261117a565b506102f78282604051602001610fd291815260200190565b604051602081830303815290604052611028565b610ff18160046111e3565b6001816020018181516110049190611ad1565b90525050565b6110158160076111e3565b6001816020018181516110049190611bf3565b610f9c82600283515b60178167ffffffffffffffff16116110585782516102df9060e0600585901b16831761117a565b60ff8167ffffffffffffffff161161109a578251611081906018611fe0600586901b161761117a565b5082516102df9067ffffffffffffffff831660016111fa565b61ffff8167ffffffffffffffff16116110dd5782516110c4906019611fe0600586901b161761117a565b5082516102df9067ffffffffffffffff831660026111fa565b63ffffffff8167ffffffffffffffff161161112257825161110990601a611fe0600586901b161761117a565b5082516102df9067ffffffffffffffff831660046111fa565b825161113990601b611fe0600586901b161761117a565b5082516102df9067ffffffffffffffff831660086111fa565b6040805180820190915260608152600060208201526111738383845161127f565b9392505050565b604080518082019091526060815260006020820152825151600061119f826001611ad1565b9050846020015182106111c0576111c0856111bb836002611bd4565b611350565b84516020838201018581535080518211156111d9578181525b5093949350505050565b8151610fa890601f611fe0600585901b161761117a565b604080518082019091526060815260006020820152835151600061121e8285611ad1565b9050856020015181111561123b5761123b866111bb836002611bd4565b6000600161124b86610100611b2c565b6112559190611bf3565b90508651828101878319825116178152508051831115611273578281525b50959695505050505050565b60408051808201909152606081526000602082015282518211156112a257600080fd5b83515160006112b18483611ad1565b905085602001518111156112ce576112ce866111bb836002611bd4565b8551805183820160200191600091808511156112e8578482525b505050602086015b602086106113285780518252611307602083611ad1565b9150611314602082611ad1565b9050611321602087611bf3565b95506112f0565b51815160001960208890036101000a0190811690199190911617905250849150509392505050565b815161135c8383610f15565b506102df8382611152565b82805461137390611c43565b90600052602060002090601f01602090048101928261139557600085556113db565b82601f106113ae57805160ff19168380011785556113db565b828001600101855582156113db579182015b828111156113db5782518255916020019190600101906113c0565b506113e7929150611420565b5090565b6040518060400160405280611413604051806040016040528060608152602001600081525090565b8152602001600081525090565b5b808211156113e75760008155600101611421565b600067ffffffffffffffff8084111561145057611450611cfd565b8360051b6020611461818301611a78565b86815293508084018583810189101561147957600080fd5b60009350835b888110156114b457813586811115611495578586fd5b6114a18b828b0161152a565b845250918301919083019060010161147f565b5050505050509392505050565b600082601f8301126114d257600080fd5b61117383833560208501611435565b60008083601f8401126114f357600080fd5b50813567ffffffffffffffff81111561150b57600080fd5b60208301915083602082850101111561152357600080fd5b9250929050565b600082601f83011261153b57600080fd5b813561154e61154982611aa9565b611a78565b81815284602083860101111561156357600080fd5b816020850160208301376000918101602001919091529392505050565b80356001811061158f57600080fd5b919050565b80356002811061158f57600080fd5b803563ffffffff8116811461158f57600080fd5b803567ffffffffffffffff8116811461158f57600080fd5b6000602082840312156115e157600080fd5b813561117381611d13565b6000602082840312156115fe57600080fd5b815161117381611d13565b6000806040838503121561161c57600080fd5b823561162781611d13565b946020939093013593505050565b60006020828403121561164757600080fd5b5035919050565b60006020828403121561166057600080fd5b5051919050565b60008060006060848603121561167c57600080fd5b83359250602084013567ffffffffffffffff8082111561169b57600080fd5b6116a78783880161152a565b935060408601359150808211156116bd57600080fd5b506116ca8682870161152a565b9150509250925092565b6000602082840312156116e657600080fd5b815167ffffffffffffffff8111156116fd57600080fd5b8201601f8101841361170e57600080fd5b805161171c61154982611aa9565b81815285602083850101111561173157600080fd5b61068f826020830160208601611c17565b600080600080600080600080600060c08a8c03121561176057600080fd5b893567ffffffffffffffff8082111561177857600080fd5b6117848d838e016114e1565b909b50995060208c013591508082111561179d57600080fd5b6117a98d838e016114e1565b909950975060408c01359150808211156117c257600080fd5b818c0191508c601f8301126117d657600080fd5b8135818111156117e557600080fd5b8d60208260051b85010111156117fa57600080fd5b60208301975080965050505061181260608b016115b7565b925061182060808b016115a3565b915060a08a013590509295985092959850929598565b6000806000806080858703121561184c57600080fd5b843567ffffffffffffffff8082111561186457600080fd5b9086019060c0828903121561187857600080fd5b611880611a4f565b61188983611594565b815261189760208401611594565b60208201526118a860408401611580565b60408201526060830135828111156118bf57600080fd5b6118cb8a82860161152a565b6060830152506080830135828111156118e357600080fd5b6118ef8a82860161152a565b60808301525060a08301358281111561190757600080fd5b6119138a8286016114c1565b60a083015250955061192a915050602086016115b7565b9250611938604086016115a3565b9396929550929360600135925050565b60006020828403121561195a57600080fd5b81516bffffffffffffffffffffffff8116811461117357600080fd5b6000815180845261198e816020860160208601611c17565b601f01601f19169290920160200192915050565b6020815260006111736020830184611976565b6040815260006119c86040830185611976565b828103602084015261068f8185611976565b67ffffffffffffffff841681526060602082015260006119fd6060830185611976565b905063ffffffff83166040830152949350505050565b67ffffffffffffffff85168152608060208201526000611a366080830186611976565b63ffffffff949094166040830152506060015292915050565b60405160c0810167ffffffffffffffff81118282101715611a7257611a72611cfd565b60405290565b604051601f8201601f1916810167ffffffffffffffff81118282101715611aa157611aa1611cfd565b604052919050565b600067ffffffffffffffff821115611ac357611ac3611cfd565b50601f01601f191660200190565b60008219821115611ae457611ae4611cbb565b500190565b600181815b80851115611b24578160001904821115611b0a57611b0a611cbb565b80851615611b1757918102915b93841c9390800290611aee565b509250929050565b60006111738383600082611b4257506001610f89565b81611b4f57506000610f89565b8160018114611b655760028114611b6f57611b8b565b6001915050610f89565b60ff841115611b8057611b80611cbb565b50506001821b610f89565b5060208310610133831016604e8410600b8410161715611bae575081810a610f89565b611bb88383611ae9565b8060001904821115611bcc57611bcc611cbb565b029392505050565b6000816000190483118215151615611bee57611bee611cbb565b500290565b600082821015611c0557611c05611cbb565b500390565b6000611173368484611435565b60005b83811015611c32578181015183820152602001611c1a565b838111156102df5750506000910152565b600181811c90821680611c5757607f821691505b60208210811415611c7857634e487b7160e01b600052602260045260246000fd5b50919050565b6000600019821415611c9257611c92611cbb565b5060010190565b600082611cb657634e487b7160e01b600052601260045260246000fd5b500690565b634e487b7160e01b600052601160045260246000fd5b634e487b7160e01b600052602160045260246000fd5b634e487b7160e01b600052603260045260246000fd5b634e487b7160e01b600052604160045260246000fd5b6001600160a01b03811681146106d357600080fdfea26469706673582212203a850fc7a6a2bb4ed51ab022a1b7d940c50f68398e9fde1ecc2d53e2540019a864736f6c63430008070033",
    "linkReferences": {},
    "deployedLinkReferences": {}
}